:020000020000FC
:100000000FEF0DBF18E01EBF40792430191202789F
:10001000001008034621060E40E0F0E0E8E04491BD
:1000200051E01FE017B910E010E014B913E015B962
:1000300020E01FEF1AB910E01BB930E03093C10087
:100040003BB93FEF3BB903B100FF0E94370003B15A
:1000500001FF0E943E0024912BB9F5CF05E005BDBC
:1000600004E606BD089504E60A95F1F70895000038
:100070000E943300189B0C94370007C000000E94B8
:100080003300199B0C943E0007C0339534FD0E9449
:100090005600E50F08C0D7CF3A9537FD0E945B00A8
:1000A000E51B01C0D0CF24912BB9CDCF33276FE012
:1000B000E61B0C9453003FE06FE0E60F0C945300F6
:00000001FF
