:020000020000FC
:100000000FEF0DBF18E01EBF40792430191202789F
:10001000001008034621060E40E0F0E0E8E04491BD
:1000200051E01FE017B910E010E014B913E015B962
:100030000E94410020E01FEF1AB910E01BB930E028
:100040003093C1003BB93FEF3BB960E024912BB93D
:1000500005B3013051F003B100FF0C944A0003B125
:1000600001FF0C9451000C94280004E606BDA89AE8
:100070007395743669F77727139518B9103141F7DE
:10008000112705E005BD04E606BD089504E60A95BE
:10009000F1F7089500000E944600189BFBCF0C94D6
:1000A000580000000E944600199BFBCF0C945F0093
:1000B000339534FD0E946A00E50F0C9466003A9572
:1000C00037FD0E946F00E51B0C94660024912BB94C
:1000D0000C94280033276FE0E61B0C9466003FE089
:0800E0006FE0E60F0C946600CE
:00000001FF
