:020000020000FC
:100000000FEF0DBF18E01EBF40792430191202789F
:10001000001008034621060E40E0F0E0E8E04491BD
:1000200051E01FE017B910E010E214B913E015B960
:100030000E94760020E01FEF1AB910E01BB930E0F3
:100040003093C1003BB93FEF3BB960E024912BB93D
:1000500003B100FF0C944A0003B101FF0C9451005E
:1000600005B300FFA9F704E606BDA89A7395743698
:1000700079F77727139518B9103111F4112700C0BB
:10008000732F73951717B9F10C94280004E60A959D
:10009000F1F7089500000E944600189BFBCF0C94D6
:1000A000580000000E944600199BFBCF0C945E0094
:1000B000339534FD11C0E50F0C9464003A9537FD7B
:1000C00010C0E51B0C94680024912BB90C942C00F3
:1000D00024912BB90C94300033276FE0E61B0C946D
:1000E00064003FE06FE0E60F0C94680005E005BD9A
:1000F00004E606BD08952D990C9482002D9A1127CF
:0C0100000C9428002D9811270C94280066
:00000001FF
